:1000000000308A004B280000FF00030E8301A1008E
:100010000A08A0008A010408A2007708A300780853
:10002000A4007908A5007A08A600831383128B1E0A
:100030001B280B192C28220884002308F700240809
:10004000F8002508F9002608FA0020088A00210E89
:100050008300FF0E7F0E09008A110A122F282A1131
:100060002A0883168700831207152914103081008F
:100070000B118A110A121B280330AC02031C4A28F8
:100080002C3084008313000803194A284828482884
:10009000800B4728080003081F398300FF30AA009F
:1000A000831603170908C039890003131F129F1212
:1000B00000300317880083128701880189018313A8
:1000C0007130831603138F0090010F08FB308700F7
:1000D0008312AA0083160108C039013881008312F7
:1000E0008B16C0308B04831603170908C0398900AA
:1000F00003131F129F12013003178800831203138A
:100100001F179F1383169F1783121F140030F800C8
:100110001F08C33978049F00291CA2282808AB00B7
:10012000AB0AAB0303199828FF30AC003C209128A0
:100130002708AC003C202A112A0883168700831266
:10014000071129102918B6289F149F18A52883166F
:100150001E088312A7001E08A8000310A70DA80DF3
:10016000F430A707013003180230A807291CB6286D
:040170008C28630074
:04400E00E22FFF3F5F
:00000001FF
;PIC16F887
;CRC=218D  CREATED="24-feb.-22 15:19"
