:1000000005308A003D2D0000FF00030E8301A10092
:100010000A08A0008A010408A2007708A300780853
:10002000A4007908A5007A08A600831383128C30F7
:100030008400001C1D280C182E2822088400230888
:10004000F7002408F8002508F9002608FA0020081F
:100050008A00210E8300FF0E7F0E09008A110A120A
:10006000512867080739F700670CF800F80CF80CFE
:100070001F30F80578086907840083136A1883170E
:10008000F801F80AF70A4528F80DF70B4428E808A4
:1000900003194D28780880045028F809780880054D
:1000A0000800A80A2808033C031CA80190010310BB
:1000B000280D293E84008313840A0008E800840385
:1000C0000008E7008E0168088F0067088E000000B6
:1000D0003130280784008313000B7D283508E700A2
:1000E0000130E800EA01E90131203508E700E801C4
:1000F000EA018030E90031208A283508E700E8016C
:10010000EA01E90131203508E700E801EA01803021
:10011000E9003120153090000C108A110A121D28B8
:10012000A8018E018F018E01000083160C14C030CF
:1001300083128B043C08B6003B08B500A7018B1B5B
:10014000A7178B133508E7000130E800EA01E90141
:100150003120A71B8B17A7018B1BA7178B13350803
:10016000E700E801EA018030E9003120A71B8B1786
:10017000153090008A110A12732D8E30F700410855
:10018000F8004008F900FA01F808031DD1287908A1
:10019000F800F9010830F702F808031DD128F7012B
:1001A000D9280310F81BD828F90DF80DF703D1282A
:1001B000F813080080308318DC06E101E2015808DA
:1001C000E0005C08E00657080319CA29DF00F700C1
:1001D0005B080319D329DF0203196F29031C2D299A
:1001E0005C08E500E5175D08E4005E08E300E20155
:1001F0000310E50CE40CE30CE20CDF0BF728E01F26
:1002000004296114E72961105F1061165A308400D7
:100210008313FC296112E01B17295F1C2229E50CBE
:10022000E40CE30CE20CF70A0319E2292229E51B8E
:1002300025290310E20DE30DE40DE50DF703031985
:10024000E229172961178F2961135808E000E01F80
:100250002B29E517DB29E513DB295B08DF00F70015
:100260005708DF025808E500E5175908E4005A0866
:10027000E300E2010310E50CE40CE30CE20CDF0BFD
:100280003929E01F4629E114E729E1105F10E11642
:100290005E3084008313FC29E112E01B59295F1CA6
:1002A0006429E50CE40CE30CE20CF70A0319E229DB
:1002B0006429E51B67290310E20DE30DE40DE50D4C
:1002C000F7030319E2295929E1178F29E1135C0883
:1002D000E000E01F6D29E517DB29E513DB295C0849
:1002E000E500E5175D08E4005E08E300E01F7C29F7
:1002F000E5136115E7296111E2015F105A308400AE
:100300008313FC29E01BA5295808E0005F1C8F29F6
:10031000E50CE40CE30CE20CF70A0319E229E21FF6
:10032000A029E30A031DA029E40A031DA029E50A68
:10033000031DA029E50CE40CE30CF70A0319E229DC
:10034000611B2429E11B6629C4298030E506E51FCD
:10035000AD29E7295C08E000BA295808E000E50863
:10036000031DBA29E408031DBA29E308031DBA29AD
:10037000F701DB29E51BC4290310E20DE30DE40DB1
:10038000E50DF70BBA29E229E01FC829E517DB299B
:10039000E513DB295B08F7005C08E5005D08E40075
:1003A0005E08E300DB295708F7005808E500590804
:1003B000E4005A08E3006508F8006408F9006308DF
:1003C000FA001A2AF701F801F901FA011A2AE201E2
:1003D000E309E409E509E209E20A031DF529E30A54
:1003E000031DF529E40A0319E50A61180329E11838
:1003F000452961197B29AA290008E307031C062A5D
:10040000E40A031D062AE50A03195F1484030008A1
:10041000E407031C0E2AE50A03195F14840300088D
:10042000801F803AE50703185F14611A0A29E11A50
:100430004C2982290800570803198B2ADF005B0822
:1004400003198B2ADF0703182C2A7F30DF02031CD5
:100450008B2A03198B2A302A8130DF0703188B2A55
:100460005F08F700F801F901FA015808E300E31703
:100470005908E2005A08E1001830DF00E001611C71
:10048000592A5E08FA07031C4B2AF90A031D4B2A56
:10049000F80A0319E0175D08F907031C522AF80A45
:1004A0000319E0175C08D900D9175908F807031891
:1004B000E017E00DF80CF90CFA0CE30CE20CE10C7F
:1004C0000310DF0B3E2A0130F70703188B2AF81BB5
:1004D000702AE30DFA0DF90DF80DF70303198B2AB5
:1004E000E31F812AFA0A031D812AF90A031D812AC2
:1004F000F80A031D812AF80CF90CFA0CF70A031903
:100500008B2A5808E0005C08E006E01F892AF817EB
:100510008F2AF8138F2AF701F801F901FA01080070
:1005200057080319552BE3005B080319552BE30209
:10053000031C9F2A7F30E3070318552BA52A81301F
:10054000E302031C552B0319552B6308F700F80130
:10055000F901FA01E2015808E100E1175908E00049
:100560005A08DF001930E3005E08DF020318C82ACA
:100570000130E0020318C82AE1020318C82AE20287
:100580000318C82AE20AE10AE00A5E08DF07FA2A2D
:100590005D08E0020318E32A0130E1020318E32AB0
:1005A000E2020318E32AE20AE10A5D08E0075E08B6
:1005B000DF07031CFA2AE00A031DFA2AE10A031DD9
:1005C000FA2AE20AFA2A5C088038E1020318F92ABA
:1005D0000130E2020318F92AE20A5C088038E107D8
:1005E0005D08E007031CD72AE10A031DD72AE20AA7
:1005F000D72A7A14E30BFD2A082B0310DF0DE00D38
:10060000E10DE20D0310FA0DF90DF80DE40DB42A19
:10061000641C102B0310F80CF90CFA0CE40C132BCF
:10062000F7030319552BE41B3C2B0310DF0DE00DE2
:10063000E10DE20D5E08DF020318282B0130E00215
:100640000318282BE1020318282BE202031C4B2B72
:100650005D08E0020318332B0130E1020318332B4D
:10066000E202031C4B2B5C088038E10203183C2B90
:100670000130E202031C4B2BFA0A031D4B2BF90A33
:10068000031D4B2BF80A031D4B2BF70A0319552B9F
:10069000F80CF90CFA0C5808E3005C08E306E31FB9
:1006A000532BF817592BF813592BF701F801F901BF
:1006B000FA01080083144208DA004108D900400812
:1006C000D8003F08D7004608DE004508DD00440892
:1006D000DC004308DB00DA207A08D6007908D50070
:1006E0007808D4007708D30083145208DA00510840
:1006F000D9005008D8004F08D7004E08DE004D083A
:10070000DD004C08DC004B08DB00DA205608DA007C
:100710005508D9005408D8005308D7007A08DE00DD
:100720007908DD007808DC007708DB001B227A08F6
:10073000D6007908D5007808D4007708D300831450
:100740004A08DA004908D9004808D8004708D70005
:100750004608DE004508DD004408DC004308DB00F5
:10076000DA205608DA005508D9005408D800530892
:10077000D7007A08DE007908DD007808DC00770809
:10078000DB0090227A08D6007908D5007808D400DA
:100790007708D30083107A08DA007908D90078083E
:1007A000D8007708D7004E08DE004D08DD004C0861
:1007B000DC004B08DB00DA208A110A12C22D8E30D1
:1007C000F7004808F7024908F9004A08F800F91745
:1007D000F7080319F62B0310F908031DF22BF8088C
:1007E0000319F62BF90CF80CF70BEB2BC91FFD2B9B
:1007F000F809F909F80A0319F90A08004908D000AC
:100800004D08D006D01F092C03110310C91B031477
:100810003C2C4908D0004C08D1004808D1020319EB
:10082000172CD01F3C2C0308013A83003C2C4D08A8
:10083000D1004908D1020319232CD01F3C2C0308F6
:10084000013A83003C2C4E08D1004A08D10203191A
:100850002F2CD01F3C2C0308013A83003C2C4F085E
:10086000D1004B08D10203193B2CD01F3C2C0308AC
:10087000013A83003C2C031008003B08B43C0318E9
:10088000432CB430BB00C1013B08C000BD20243064
:10089000DA006030D9005630D8006E30D7007A08C0
:1008A000DE007908DD007808DC007708DB001B2219
:1008B0007A08BF007908BE007808BD007708BC0040
:1008C0003F08C3003E08C2003D08C1003C08C0000C
:1008D0009930CB00BB30CA001630C9007630C80052
:1008E0004308CF004208CE004108CD004008CC00AC
:1008F000FE23031C832C9930C300BB30C20016308A
:10090000C1007630C0004308CB004208CA0041084D
:10091000C9004008C800CF01CE01CD01CC01FE23A3
:10092000031C962CC301C201C101C0018030DA0052
:100930009630D9001830D8009730D7004308DE0031
:100940004208DD004108DC004008DB001B227A0879
:10095000CB007908CA007808C9007708C8007A086F
:10096000DA007908D9007808D8007708D700DE01C6
:10097000DD01DC018230DB0090228314DA01FF30DC
:10098000D9007F30D8008E30D7007A08DE00790891
:10099000DD007808DC007708DB00DA207A08CB007D
:1009A0007908CA007808C9007708C800DF237908E9
:1009B000C5007808C40083149930DA00BB30D90030
:1009C0001630D8007630D7004308DE004208DD003C
:1009D0004108DC004008DB00DA208030DA00963085
:1009E000D9001830D8009730D7007A08DE0079088F
:1009F000DD007808DC007708DB001B227A08CB00DA
:100A00007908CA007808C9007708C8007A08DA00AF
:100A10007908D9007808D8007708D700DE01DD0111
:100A2000DC018230DB0090228314DA01FF30D90030
:100A30007F30D8008E30D7007A08DE007908DD00DC
:100A40007808DC007708DB00DA207A08CB00790828
:100A5000CA007808C9007708C800DF237908C700F2
:100A60007808C6004508AC004408AB004708AE0053
:100A70004608AD008A110A12D02D03081F398300E1
:100A8000A801FF30B600B500BA00831603170908A5
:100A9000C039890003131F129F120030031788000A
:100AA0008312870188018901831317300313A9007A
:100AB000FC30AA00FF30AB00AC008930AD00E9305B
:100AC000AE00AF30AF003C30B0000130B100B2003A
:100AD000B301B401FB30831687008312BA00BC0156
:100AE0003A30BB009028831603170908C0398900E3
:100AF00003131F129F120130031788008312031380
:100B00001F179F1383169F1783121F140030F800BE
:100B10001F08C33978049F009F149F188D2D1E084D
:100B2000F90083161E08F80079088312B8007808C7
:100B3000B7003808C1003708C000BD207A08BE00E1
:100B40007908BD007808BC007708BB007A08C200AD
:100B50007908C1007808C0007708BF00C601C50148
:100B6000C401C301CA01C901C8018930C700CE014F
:100B7000CD01CC01CB01D201D1013430D00086307F
:100B8000CF005A2B7A08CB007908CA007808C90030
:100B90007708C800DF237808B9003908BB003D2C6E
:040BA0008C2D630035
:04400E00E72FFF3F5A
:00000001FF
;PIC16F887
;CRC=20FC  CREATED="14-sep.-23 12:22"
